:100000000C94FF010C9427020C9427020C942702F5
:100010000C9427020C9427020C9427020C942702BC
:100020000C9427020C9427020C94A6080C94150932
:100030000C9427020C9427020C9427020C9427029C
:100040000C9427020C9427020C9427020C9427028C
:100050000C9427020C9427020C9427020C945C0841
:100060000C9427020C9427020C9427020C9427026C
:100070000C9427020C9427020C9427020C9427025C
:100080000C9427020C9427020C9427020C9427024C
:100090000C9427020C9427020C9427020C9427023C
:1000A0000C9427020C9427020C94270200000000F5
:1000B0000000000000000000000000002A002B00EB
:1000C0002800000000000000000000000000000008
:1000D0000000000000000000000000000000000020
:1000E0000000000000000000000000002C001E02C4
:1000F00034022002210222022402340026022702B6
:1001000025022E0236002D003700380027001E0081
:100110001F002000210022002300240025002600CB
:100120003302330036022E00370238021F02040267
:10013000050206020702080209020A020B020C026B
:100140000D020E020F02100211021202130214021B
:10015000150216021702180219021A021B021C02CB
:100160001D022F003100300023022D023500040053
:10017000050006000700080009000A000B000C003B
:100180000D000E000F0010001100120013001400EB
:10019000150016001700180019001A001B001C009B
:1001A0001D002F0231023002350200000000000065
:1001B000000000000000000000000000000000003F
:1001C000000000000000000000000000000000002F
:1001D000000000000000000000000000000000001F
:1001E000000000000000000000000000000000000F
:1001F00000000000000000000000000000000000FF
:1002000000000000000000000000000000000000EE
:1002100000000000000000000000000000000000DE
:1002200000000000000000000000000000000000CE
:1002300000000000000000000000000000000000BE
:1002400000000000000000000000000000000000AE
:10025000000000000000000000000000000000009E
:10026000000000000000000000000000000000008E
:10027000000000000000000000000000000000007E
:10028000000000000000000000000000000000006E
:10029000000000000000000000000000000000005E
:1002A000000000000000000000000000000000004E
:1002B000250028002B002E00310000000000240043
:1002C00027002A002D003000000000002300260037
:1002D00029002C002F000404040404030405020276
:1002E00002020403020202020606060606060404CF
:1002F0000202020404040802011040804010204061
:10030000804080080204018040201002011080100B
:10031000204040200000000200090F0000030401FB
:10032000000C0000000000000000000000000000C1
:10033000000000080B000202020000090400000196
:10034000020200000524001001052401010104241B
:100350000206052406000107058103100040090478
:100360000100020A00000007050202400000070524
:1003700083024000000403090412010002EF02019D
:100380004041233680000101020301417264756916
:100390006E6F204C4C430041726475696E6F204C47
:1003A000656F6E6172646F0005010906A101850227
:1003B000050719E029E71500250175019508810257
:1003C000050C95017508150026FF00190029FF810D
:1003D00000050795067508150026E700190029E7AE
:1003E0008100C0050C0901A1018504150026FF0349
:1003F00019002AFF03950475108100C0470B1124D2
:100400001FBECFEFDAE0DEBFCDBF11E0A0E0B1E06C
:10041000E8EBF9E102C005900D92AA34B107D9F7D3
:1004200022E0AAE4B1E001C01D92A830B207E1F7D2
:1004300011E0CFEFD1E004C02197FE010E94D40C5F
:10044000CE3FD107C9F70E94E30B0C94DA0C0C9451
:100450000000FC0180918501882311F13FB7F894D9
:1004600082E08093E9002091F200822F90E018163C
:10047000190614F481E090E0882339F0289844E6C6
:10048000409384014091F1004083222339F0209170
:10049000F200211103C02BE62093E8003FBF08952E
:1004A0008FEF9FEF08953FB7F8948091800190916E
:1004B0008101A0918201B091830126B5A89B05C05E
:1004C0002F3F19F00196A11DB11D3FBFBA2FA92FD3
:1004D000982F8827BC01CD01620F711D811D911DD0
:1004E00042E0660F771F881F991F4A95D1F708953C
:1004F000CF92DF92EF92FF920E9453026B017C0138
:100500000E9453026C197D098E099F09683E734051
:1005100081059105A8F3FF90EF90DF90CF900895AB
:10052000409171015091720120916F0130917001E1
:1005300042175307B4F49091E8009570E1F390915D
:10054000E80092FD19C08093F100809171019091B3
:10055000720101968F739927892B19F48EEF80937E
:10056000E80080917101909172010196909372015F
:100570008093710181E0089580E00895EF92FF92E9
:100580000F931F93CF93DF93F82E192FE62E042F8E
:1005900081E0860F880F0E94900283E00E94900203
:1005A000CF2DD12FEC0EFD2EF11CCE15DF05B9F0AD
:1005B00007FF13C0FE0184910E949002182F80E073
:1005C0000E949002812321968111EFCFDF91CF917C
:1005D0001F910F91FF90EF9008958881EDCF81E0FA
:1005E000F5CFDF92EF92FF920F931F93CF93DF939C
:1005F000D82E8A01EB017B01E40EF51ECE15DF0536
:1006000059F0D7FE12C0FE0184910E9490022196FB
:100610008111F4CF0FEF1FEFC801DF91CF911F9130
:100620000F91FF90EF90DF9008958881EECF2FB764
:10063000F89487708093E9009091E800892F807288
:1006400095FF04C09091F20080E4891B2FBF0895AC
:100650007F928F929F92AF92BF92CF92DF92EF9252
:10066000FF920F931F93CF93DF93C82E8B017A01D4
:1006700080918501811110C08FEF9FEFDF91CF91A5
:100680001F910F91FF90EF90DF90CF90BF90AF90B0
:100690009F908F907F9008958091750180FF05C095
:1006A0008091E00082608093E000CE2DDF2DD12C80
:1006B0008AEFB82E8C2D8770982E8C2D8072882E04
:1006C0008C2D8074782E9AE3A92E209719F4DD20C2
:1006D00009F44EC08C2D0E941703811106C0BA94F4
:1006E000BB2051F20E947802F0CF8C171D0611F04A
:1006F0000CF08C2F9FB7F8949092E9002091E800BD
:1007000025FD02C09FBFE1CF282F30E0C21BD30BD5
:10071000882029F08150A0F01092F100FBCFF80161
:10072000C7FC0AC0815050F041914093F100FACFCC
:1007300044914093F10031968150D0F7020F131F7E
:10074000DD2021F0A092E800D12CDCCF8091E800E0
:1007500085FD07C0A092E800DD24D394209791F294
:10076000F3CF209779F6772069F2A092E800CACFFC
:100770005D9884E680937401C70180CF615030F0AA
:100780002091F100FC0120830196F8CF289884E69F
:10079000809384010895AF92BF92CF92DF92EF923F
:1007A000FF920F931F93CF93DF936C017B018B011B
:1007B000040F151FEB015E01AE18BF08C017D1076B
:1007C00059F06991D601ED91FC910190F081E02DF5
:1007D000C6010995892B79F7C501DF91CF911F914A
:1007E0000F91FF90EF90DF90CF90BF90AF90089562
:1007F0008091670181110DC082E08093630184E0E4
:1008000080936401109266011092650181E08093EB
:10081000670183E691E008950F931F93CF93DF93D1
:100820001F92CDB7DEB782E0898342E450E063E3F4
:1008300073E080E80E94F1020E94F803DC01129646
:100840000D911C910115110589F0D801ED91FC91D4
:100850000280F381E02DBE016F5F7F4FC8010995D3
:1008600097FD04C0F80100851185ECCF89810F90B8
:10087000DF91CF911F910F910895CF93DF93EC01FA
:1008800080911201882331F083E00E94280318161A
:10089000190634F081E090E09B838A8380E090E049
:1008A000DF91CF910895CF93DF931F92CDB7DEB73D
:1008B0006983DC01ED91FC910280F381E02D41E040
:1008C00050E0BE016F5F7F4F09950F90DF91CF9190
:1008D000089583E08093E9008091F200882319F065
:1008E0008AE38093E800089583E00E94170390E074
:1008F0000895CF93DF931F92CDB7DEB7FC018485B7
:10090000958597FD08C02FEF3FEF358724870F901F
:10091000DF91CF910895CE0101960E94290201979F
:1009200019F4898190E0F3CF8FEF9FEFF0CF0F9311
:100930001F93CF93DF931F92CDB7DEB78C01FC01DD
:100940008485958597FF0BC0CE0101960E942902F0
:10095000019771F4898190E0F80195878487F80107
:10096000848595850F90DF91CF911F910F91089508
:100970008FEF9FEFF1CFFC018485958597FD0BC02C
:100980009FB7F89482E08093E9008091F2009FBFC6
:1009900090E0019608959FB7F89482E08093E90073
:1009A0008091F2009FBF90E00895282F30E0F90178
:1009B000EC5EFC4F9491F901EB50FD4F84912A526B
:1009C0003D4FF9012491222309F45BC09923E9F0FA
:1009D00091509F30D0F4E92FF0E0EF50FB4F0C9492
:1009E000D40C1C0520050005140518050505050592
:1009F0000505230529052D053105370505053B05A9
:100A0000909180009F7790938000E22FF0E0EE0FAE
:100A1000FF1FE853FD4FA591B491EC91E82381E0CD
:100A200090E089F580E00895909180009F7DEBCF64
:100A300090918000977FE7CF94B59F7794BDE5CFE5
:100A400094B59F7DFBCF909190009F7790939000FD
:100A5000DCCF909190009F7DF9CF90919000977F8F
:100A6000F5CF9091C0009F779093C000CECF90912A
:100A7000C0009F7DF9CF9091C200977F9093C200F4
:100A8000C4CF80E090E00895CF93DF9390E0FC0125
:100A9000EB50FD4F24918A529D4FFC018491882395
:100AA000C9F090E0880F991FFC01E654FD4FA59115
:100AB000B491FC01E455FD4FC591D49161110DC075
:100AC0009FB7F8948C91209582238C93888128235A
:100AD00028839FBFDF91CF910895623051F49FB773
:100AE000F8943C91822F809583238C93E8812E2B60
:100AF000EFCF8FB7F894EC912E2B2C938FBFEACFCA
:100B0000DC01FB0112962C911297848195812817A4
:100B1000190641F491818081813A31F49D7F81E011
:100B2000913009F080E008958132E1F79B3029F49B
:100B300082811F968C9381E008959A3099F7828183
:100B400050968C93F8CFAF92BF92CF92DF92EF92F4
:100B5000FF920F931F93CF93DF931F92CDB7DEB712
:100B60007C0169836A01590141E050E0BE016F5F79
:100B70007F4FFC0183810E9428038C0197FD0BC0ED
:100B8000F7018381A501B60180640E942803080F44
:100B9000191F97FD8C01C8010F90DF91CF911F9114
:100BA0000F91FF90EF90DF90CF90BF90AF9008959E
:100BB000DC01FB0188E4808389E4818384E482830F
:100BC0001D969C911D979F709F5B93831D968D91A1
:100BD0009C9124E0969587952A95E1F78F708F5B1D
:100BE000848385E00895EF92FF920F931F93CF9334
:100BF000DF93FB012081213871F52381223259F5E1
:100C0000DC0112964C91248135814217130619F5A7
:100C1000EC010B851C85F12CE12C0115110589F0E7
:100C2000F801448155816281738180E80E94F1025C
:100C30008F3F980749F0E80EF91ED8010D911C91DD
:100C4000ECCF81E08F87C701DF91CF911F910F918A
:100C5000FF90EF90089590E080E0F6CFCF93DF9380
:100C6000CDB7DEB769970FB6F894DEBF0FBECDBF24
:100C7000FC01DB018C918F5F8C939E012D5F3F4FB8
:100C80008DE0D9011D928A95E9F729E0298384E056
:100C90008A8391E09D8383E08E832A8721E22B87DC
:100CA0009C879D879F8722E2288B27E02B8B25E05E
:100CB0002C8B8E8B20E430E0388F2F8B998F8281A4
:100CC0008B8395858685998B8A8B838180688D8BB4
:100CD00049E150E0BE016F5F7F4F80E00E94F1026A
:100CE00069960FB6F894DEBF0FBECDBFDF91CF91EE
:100CF0000895CF93DF9380915B01811167C081E0FC
:100D000080934E0180934F0124E531E030935101EF
:100D100020935001109253011092520127E131E0CB
:100D200030934B0120934A011092560110925501C5
:100D300010925801109257018093590180935A01E3
:100D400081EC809354010E94F803FC018181909111
:100D50004E01482F490F5527551F483051059CF526
:100D6000A281B381109709F52AE431E0338322830D
:100D7000208120934C0180934D0180914F01820F7F
:100D8000808320915001A22FB09151018A2F821BA4
:100D90008917C8F481813D91C82FD0E0C050DF4F42
:100DA00038838F5F8183F2CFD90118962D913C91C2
:100DB000199721153105C1F72AE431E019963C93C2
:100DC0002E931897D5CF81E080935B018AE491E060
:100DD000DF91CF910895CF93DF93EC010E947906C4
:100DE000AE014C5F5F4F28E030E062E0DF91CF91D1
:100DF0000C94A305CF93DF93DC0190E2960F98301B
:100E0000B0F414968C91149721E030E001C0220FC9
:100E10009A95EAF7442341F0282B14962C9381E00D
:100E200090E0DF91CF91089520952823F6CFFD0122
:100E300036964423D1F0CD010C96EF01299162172B
:100E400071F3C817D907D1F790E080E02191211103
:100E500005C0A80FB91F16966C93E1CF0196863096
:100E60009105A1F790E080E0DCCF90E080E0219157
:100E7000621305C0A80FB91F16961C92D0CF019619
:100E800086309105A1F7EECFCF92DF92FF920F93BC
:100E90001F93CF93DF938C01F42EE62FF0E0EE0F3B
:100EA000FF1FE455FF4FC590D490D801ED91FC9100
:100EB0000484F585E02D6C2DC8010995EC01892B82
:100EC00011F4F11070C0D0FE0CC0D801ED91FC916E
:100ED0000484F585E02D4F2D60EEC8010995C82BDF
:100EE000D92BD1FE0CC0D801ED91FC910484F5857D
:100EF000E02D4F2D61EEC8010995C82BD92BD2FEEC
:100F00000CC0D801ED91FC910484F585E02D4F2DA6
:100F100062EEC8010995C82BD92BD3FE0CC0D801AD
:100F2000ED91FC910484F585E02D4F2D63EEC80111
:100F30000995C82BD92BD4FE0CC0D801ED91FC919A
:100F40000484F585E02D4F2D64EEC8010995C82B6A
:100F5000D92BD5FE0CC0D801ED91FC910484F58508
:100F6000E02D4F2D65EEC8010995C82BD92BD6FE73
:100F70000CC0D801ED91FC910484F585E02D4F2D36
:100F800066EEC8010995C82BD92BD7FE0CC0D80135
:100F9000ED91FC910484F585E02D4F2D67EEC8019D
:100FA0000995C82BD92BCE01DF91CF911F910F91BD
:100FB000FF90DF90CF900895FF920F931F93CF93F0
:100FC000DF93EC01F62E41E00E9444078C01892B4F
:100FD000A9F0E881F9810284F385E02DCE0109951D
:100FE00040E06F2DCE010E944407892B39F0E88143
:100FF000F9810284F385E02DCE010995C801DF91C6
:10100000CF911F910F91FF900895089590E080E097
:1010100008950F931F93CF93DF93EB018A010E94F2
:1010200079069801AE0164E0DF91CF911F910F9195
:101030000C94A305E0E0F2E030E020E04191519112
:101040002F5F3F4F452B79F4220F331FF901E250F8
:10105000FE4F9183808348E050E060E072E08EEFC5
:1010600091E00C9409082430310541F7F4CFEEEFFC
:10107000F1E0228133812817390711F4138212829B
:10108000329622E0E630F207A1F748E050E060E057
:1010900072E08EEF91E00C940908FC019C01285F3E
:1010A0003F4F90E080E044814111019614823196D7
:1010B000E217F307C1F708951F920F920FB60F9230
:1010C00011242F933F938F939F93AF93BF9380915E
:1010D0007C0190917D01A0917E01B0917F013091C2
:1010E0007B0123E0230F2D3758F50196A11DB11D7B
:1010F00020937B0180937C0190937D01A0937E01DE
:10110000B0937F018091800190918101A091820133
:10111000B09183010196A11DB11D80938001909330
:101120008101A0938201B0938301BF91AF919F9100
:101130008F913F912F910F900FBE0F901F90189598
:1011400026E8230F0296A11DB11DD2CF1F920F9248
:101150000FB60F9211248F939F938091E10090918D
:10116000E100937F9093E10083FF0FC01092E900AC
:1011700091E09093EB001092EC0092E39093ED00DD
:101180001092850198E09093F00082FF22C093E0D6
:101190009093E9009091F200992319F09AE39093CB
:1011A000E80090917401992341F09091740191505D
:1011B00090937401911101C05D9A909184019923DB
:1011C00041F090918401915090938401911101C05C
:1011D000289A84FF18C08091E2008E7E81608093FF
:1011E000E2008091E1008F7E8093E10080917501A3
:1011F0008E7E8061809375019F918F910F900FBEBD
:101200000F901F90189580FFF7CF8091E2008E7E9F
:1012100080618093E2008091E1008E7E8093E10006
:10122000809175018E7E8160E5CF1F920F920FB67F
:101230000F921124CF92DF92EF92FF920F931F93A0
:101240002F933F934F935F936F937F938F939F93CE
:10125000AF93BF93EF93FF93CF93DF93CDB7DEB7F9
:101260006C97DEBFCDBF1092E9008091E80083FF4C
:1012700025C068E0CE0145960E94BE0382EF8093B0
:10128000E8008D8987FF39C09091E80090FFFCCF7E
:10129000982F907609F034C19E894F89588D2F89F7
:1012A000F88C911131C0803861F58091760180937E
:1012B000F1001092F1008EEF8093E8006C960FB66B
:1012C000F894DEBF0FBECDBFDF91CF91FF91EF91BC
:1012D000BF91AF919F918F917F916F915F914F914E
:1012E0003F912F911F910F91FF90EF90DF90CF9042
:1012F0000F900FBE0F901F9018959EEF9093E800EF
:10130000C7CF1092F100D5CF913059F48111D3CFCE
:101310004130510581F6809176018D7F8093760171
:10132000CACF933049F48111C6CF4130510519F627
:10133000809176018260F2CF953041F48091E8008F
:1013400080FFFCCF20682093E300B5CF963009F0F2
:10135000A9C00B8D1C8D22E01092E9001092720141
:1013600010927101F2122EC01092700110926F0152
:101370000E940C041F8299E09983FA8291E09E8377
:1013800090EA98879AEF99872091710130917201C4
:10139000275F3F4F3C832B838D831092E90010928F
:1013A0007201109271011093700100936F0149E076
:1013B00050E0BE016F5F7F4F80E00E94F1020E940B
:1013C0000C0479CF1093700100936F010E94F80311
:1013D000DC0112960D911C910115110509F451C102
:1013E000D801ED91FC910480F581E02DBE016B5E8A
:1013F0007F4FC8010995009709F03EC1F8010085AB
:101400001185EACFF3E0FF120EC08F89882309F41B
:1014100040C0823061F440E860E187E993E00E94D7
:10142000BE02811148CF81E28093EB0047CF81302B
:1014300029F440E86BE08BE893E0F1CF833099F733
:101440000E94F803DC011296ED90FC908E010F5F74
:101450001F4F6801E114F10479F0D701ED91FC917F
:101460000680F781E02DB801C7010995080F111D0D
:10147000F701E084F184EECFD8011C92F6010190CF
:101480000020E9F73197BF016C197D0940E0C601E2
:10149000C6CF65E773E0FB01449150E080E80E940D
:1014A000F10209CF973009F4BECF983021F481E0E2
:1014B0008093F10000CF993009F0FDCE837009F0E0
:1014C000B2CFE1E0F1E081E031E096E32191222327
:1014D00071F08093E9003093EB00DF0111972C91BC
:1014E0002093EC009093ED008F5F873079F78EE7C3
:1014F0008093EA001092EA008F8980938501DBCE09
:101500008B8D9C8D1092E9001092720110927101E6
:101510009093700180936F01898D811192C08E89A3
:101520009D89913A49F4813209F07DCF47E050E03E
:101530006BE071E080E0B3CF913209F074CF833279
:1015400069F48F89988DB0E0A0E0809307019093B3
:101550000801A0930901B0930A01ADCE803269F46D
:101560008091E80082FFFCCF67E08BE091E00E9471
:10157000BE038BEF8093E8009ECE823209F09BCEB3
:101580008F8980931201EEEFFFE7859194918B3F55
:101590009C4D51F1E0E0F8E080910B0190910C013D
:1015A000A0910D01B0910E01803B9440A105B105C1
:1015B000F1F48091120180FD1AC0EE3F8AE0F80735
:1015C00089F587E797E79183808380916000809316
:1015D000730188E19BE00FB6F894A89580936000B2
:1015E0000FBE9093600067CEEEEFFAE0D5CF80811A
:1015F00091818737974709F05ECEA895809160006A
:101600008861809360008091730180936000EE3F59
:101610002AE0F20789F08091FE0A9091FF0A9183F7
:10162000808349CE808191818737980751F29093CA
:10163000FF0A8093FE0AC5CF1092FF0A1092FE0A9D
:101640003ACE0E94F803DC0112960D911C9101150F
:10165000110509F4E8CED801ED91FC910190F081DB
:10166000E02DBE016B5E7F4FC8010995811123CE2D
:10167000F80100851185EBCF181619060CF41BCE66
:10168000D2CEF1E0FF12BECE69E773E004CF109234
:1016900089011092880188EE93E0A0E0B0E0809389
:1016A0008A0190938B01A0938C01B0938D0183E20A
:1016B00091E090938701809386018FEF9FEF909345
:1016C0009301809392011092E7011092E60185E365
:1016D00091E09093E5018093E4018091DC01811118
:1016E00013C01092D7011092D60188EA93E090932C
:1016F000D9018093D8018BE390E09093DB01809334
:10170000DA0181E08093DC010E947906FC01A38567
:10171000B485109709F042C086ED91E094878387E5
:10172000858596852091DA013091DB01820F931F28
:101730009687858787E491E09093FF018093FE016F
:101740008091F601811113C01092F1011092F00105
:1017500083EE93E09093F3018093F20189E190E0AE
:101760009093F5018093F40181E08093F6010E944B
:101770007906FC01A385B4851097D9F480EF91E038
:1017800094878387858596852091F4013091F501B2
:10179000820F931F968785870895DC018D919C9118
:1017A00011970097D1F786ED91E08D939C93B8CF78
:1017B000DC018D919C9111970097D1F780EF91E01A
:1017C0008D939C93DFCF789484B5826084BD84B57B
:1017D000816084BD85B5826085BD85B5816085BD2C
:1017E00080916E00816080936E00109281008091E4
:1017F000810082608093810080918100816080936C
:1018000081008091800081608093800080919100B0
:10181000826080939100809191008160809391001B
:10182000809190008160809390008091C1008460DD
:101830008093C1008091C10082608093C10080913B
:10184000C10081608093C1008091C300816080935A
:10185000C3008091C00082608093C0008091C2006C
:1018600081608093C20080917A00846080937A00C6
:1018700080917A00826080937A0080917A00816002
:1018800080937A0080917A00806880937A00109229
:10189000850110927601109275018091D7008160C8
:1018A0008093D70080EA8093D80089B5806189BD94
:1018B00089B5826089BD09B400FEFDCF0E9478021F
:1018C0008091D8008F7C80618093D8008091E00067
:1018D000807F8093E0008091E1008E7E8093E10024
:1018E0008DE08093E200559A209A60E081E00E94AA
:1018F000440560E082E00E94440562E083E00E94CB
:1019000044058FEF9FEF9093930180939201E0E065
:10191000F2E088E0DF011D928A95E9F748E050E0A7
:10192000BF018EEF91E00E94090884EE91E00E94D1
:101930004D0884EE91E00E94EB0681E00E94D50400
:10194000909378018093770100E010E081E00E949D
:10195000D504EC0190937A0180937901809177010D
:1019600090917801C817D90771F082E00E94D504E0
:10197000C817D90791F089EE90E00E941A0889EE05
:1019800090E00E943708D0937801C0937701011549
:101990001105E1F20E940000D9CF8AEE90E00E948A
:1019A0001A088AEE90E0EDCFEE0FFF1F0590F4913C
:0819B000E02D0994F894FFCF2B
:1019B80000C18081000000FFFFFFFF00E100000080
:1019C8000000000000000080052E06F305D8050081
:1019D80000000053043D0474046904BB04790497AF
:1019E8000400000000DC07CB03060805084D08EBDF
:0A19F80006FA0600000000090800CE
:00000001FF
